:100000000C94E0130C940F140C940F140C940F1414
:100010000C940F140C940F140C940F140C940F14D4
:100020000C940F140C940F140C940F140C940F14C4
:100030000C940F140C946A770C940F140C940F14F6
:100040000C940F140C949A860C9485B40C940F1491
:100050000C9411140C940F140C940F140C940F1492
:100060000C940F140C940F140C940F140C940F1484
:100070000C940F140C940F140C940F140C940F1474
:100080000C940F140C940F140C940F14A6B5ABB56C
:10009000B0B5BAB5E8B5E8B5C4B5CCB5D4B5DEB53C
:1000A00005B608B6FBB5FFB51FB61FB60CB610B641
:1000B00016B61AB6446F6E6520736176696E672056
:1000C00066696C652E0A004D3239004D38340047A0
:1000D00031205A323020463630303000473120450A
:1000E0002D3520463130303000473931004731203E
:1000F0005A2B323000473931002020506C616E6E2F
:10010000657242756666657242797465733A20005D
:100110002046726565204D656D6F72793A20004307
:100120006F6D70696C65643A204A616E20313220CF
:10013000323032300A00207C20417574686F723A88
:1001400020287468697369736B65697468622C2010
:100150004D656761205A65726F290A003230313966
:100160002D30392D303400204C617374205570646B
:10017000617465643A200056302E302E340A004DEA
:1001800061726C696E0020536F66747761726520CE
:1001900052657365740A00205761746368646F6701
:1001A0002052657365740A002042726F776E206F6B
:1001B00075742052657365740A0020457874657201
:1001C0006E616C2052657365740A00506F776572BA
:1001D00055700A0073746172740A005072696E740B
:1001E00065722068616C7465642E206B696C6C2884
:1001F000292063616C6C6564210A004B494C4C45B5
:10020000442E20004B494C4C20636175736564207B
:10021000627920746F6F206D75636820696E616309
:10022000746976652074696D65202D20637572721E
:10023000656E7420636F6D6D616E643A200020748A
:100240006F6F206C6F6E6720657874727573696F5D
:100250006E2070726576656E7465640A006F6B005F
:10026000526573656E643A2000454550524F4D20EB
:100270004F4B0A004E6F2063617365206C6967689D
:10028000740A00496E76616C6964206578747275D1
:100290006465720A0020643A0020693A0020703ACE
:1002A0000020466C6F773A2000205A0020590058F1
:1002B0000020204D61783A2000205A002059005833
:1002C0000020204D696E3A20004F6666004F6E2078
:1002D00000536F667420656E6473746F70733A2098
:1002E00000205400205200416363656C65726174A4
:1002F000696F6E3A2050004D31343520533C696EA1
:100300006465783E206F7574206F662072616E6739
:10031000652028302D31290A002F2F20003A004374
:1003200061703A00544845524D414C5F50524F5411
:10033000454354494F4E004155544F5245504F523A
:10034000545F53445F53544154555300454D4552F7
:1003500047454E43595F5041525345520043415324
:10036000455F4C494748545F4252494748544E45BF
:10037000535300544F47474C455F4C4947485453EB
:1003800000534F4654574152455F504F5745520016
:100390004255494C445F50455243454E54004C45EC
:1003A00056454C494E475F44415441005A5F5052B4
:1003B0004F4245004155544F4C4556454C00505214
:1003C000494E545F4A4F420050524F475245535393
:1003D000004155544F5245504F52545F54454D5073
:1003E00000564F4C554D45545249430045455052D7
:1003F0004F4D0053455249414C5F584F4E5F584F47
:100400004646004649524D574152455F4E414D4583
:100410003A4D61726C696E2056302E302E34202891
:100420004769746875622920534F555243455F43AD
:100430004F44455F55524C3A68747470733A2F2F8D
:100440006769746875622E636F6D2F4D61726C6998
:100450006E4669726D776172652F4D61726C696E5F
:100460002050524F544F434F4C5F56455253494FC3
:100470004E3A312E30204D414348494E455F545944
:1004800050453A4D656761205A65726F2045585452
:1004900052554445525F434F554E543A31205555BD
:1004A00049443A63656465326132662D34316132A4
:1004B0002D343734382D396231322D63353563367A
:1004C000326633363766660A004D656761205A65C5
:1004D000726F204F66662E0020573A004520436F0A
:1004E0006F6C696E672E2E2E004520486561746919
:1004F0006E672E2E2E006F6B004D3131332053006E
:100500004B494C4C45442E20004543484F00494E32
:10051000464F004552524F52530044525952554E85
:1005200000434F4D4D554E49434154494F4E006F86
:1005300066660009050E0513051A052105444542A6
:1005400055473A0050726F74656374656420506952
:100550006E0A0000010F150E12FFFFFFFF16170EA7
:1005600013FFFFFFFF03021A14FFFFFFFFFFFFFF50
:100570000C04FFFFFF01000EFFFFFF0C190DFF1819
:100580002569730025696D20256973002569682038
:1005900025696D2025697300256964202569682017
:1005A00025696D20256973002569792025696420F6
:1005B0002569682025696D20256973005072696E70
:1005C000742074696D653A200043757272656E74AB
:1005D0002066696C653A2000456E642066696C652A
:1005E000206C6973740A00426567696E2066696CE5
:1005F00065206C6973740A004E6F206D6F76652EEE
:1006000000436C69636B20746F20726573756D6550
:100610002E2E2E00536C6565702E2E2E00496E76A0
:10062000616C69642065787472756465720A004152
:1006300063746976652045787472756465723A20D2
:100640000020453A00205A3A0020593A00583A0012
:100650005761726E696E673A20486F6D696E6720E8
:1006600042756D702044697669736F72203C203149
:100670000A00020204627573793A2070617573652D
:100680006420666F7220696E7075740A00627573FB
:10069000793A2070617573656420666F7220757396
:1006A00065720A00627573793A2070726F636573C0
:1006B00073696E670A0020496E76616C6964206513
:1006C00078747275646572200053442072656164A9
:1006D000206572726F720A00446F6E6520707269D5
:1006E0006E74696E672066696C650A004B494C4CF4
:1006F00045442E200053544F505045442E20005066
:1007000072696E7465722073746F707065642064B2
:10071000756520746F206572726F72732E20466942
:100720007820746865206572726F7220616E642033
:10073000757365204D39393920746F207265737473
:100740006172742E202854656D70657261747572C3
:10075000652069732072657365742E20536574205B
:100760006974206166746572207265737461727455
:10077000696E67290A004E6F20436865636B737565
:100780006D2077697468206C696E65206E756D6286
:1007900065722C204C617374204C696E653A2000A0
:1007A0004E6F20436865636B73756D20776974685D
:1007B000206C696E65206E756D6265722C204C61CF
:1007C0007374204C696E653A2000636865636B73CF
:1007D000756D206D69736D617463682C204C617355
:1007E00074204C696E653A20004C696E65204E7528
:1007F0006D626572206973206E6F74204C61737432
:10080000204C696E65204E756D6265722B312C200F
:100810004C617374204C696E653A20004D31313063
:1008200000656E7175657565696E67202200FFFF52
:10083000FF0000A0400000A0400000004000006554
:100840004300005C4300007A43000010C100000038
:100850000000000000000048420000484200008004
:1008600040000000007C3C3E5E2B3D3F2F5B5D3B2B
:100870002C2A225C0057726974696E6720746F209D
:1008800066696C653A20006F70656E206661696C00
:1008900065642C2046696C653A20004D3331004375
:1008A000616E6E6F7420656E74657220737562641C
:1008B00069723A20006F70656E206661696C6564CC
:1008C0002C2046696C653A20006175746F25692E8D
:1008D00067006572726F722077726974696E672043
:1008E000746F2066696C650A004E6F742053442053
:1008F0007072696E74696E670A0053442070726981
:100900006E74696E672062797465200044656C6559
:1009100074696F6E206661696C65642C2046696C31
:10092000653A200046696C652064656C6574656491
:100930003A0057726974696E6720746F2066696C3B
:10094000653A20006F70656E206661696C65642C85
:100950002046696C653A20006F70656E206661699B
:100960006C65642C2046696C653A200046696C65AC
:100970002073656C65637465640A002053697A6549
:100980003A200046696C65206F70656E65643A2098
:10099000002066696C653A200066726573680064C1
:1009A0006F696E67004E6F772000454E44205355A7
:1009B00042524F5554494E450A002220706F730031
:1009C0002220706172656E743A2200535542524F74
:1009D0005554494E452043414C4C20746172676523
:1009E000743A22004B494C4C45442E2000747279D5
:1009F000696E6720746F2063616C6C207375622D63
:100A000067636F64652066696C65732077697468D5
:100A100020746F6F206D616E79206C6576656C73E4
:100A20002E204D4158206C6576656C2069733A0024
:100A30004D3234004D32332025730053442063611E
:100A40007264206F6B0A006F70656E526F6F742056
:100A50006661696C65640A00766F6C756D652E69F8
:100A60006E6974206661696C65640A00534420698C
:100A70006E6974206661696C0A00286E6F20666971
:100A80006C65290043616E6E6F74206F70656E2017
:100A90007375626469722000F4010000F4010000C3
:100AA00064000000881300000000FA430000FA43CD
:100AB0000000A0400000C8410000A0420000A04289
:100AC0000000C8430080C0432053697A653A200083
:100AD000496E6465783A2000454550524F4D206478
:100AE00061746173697A65206572726F722E0A0093
:100AF0004572726F722077726974696E6720746FC5
:100B000020454550524F4D210A007A5F6D696E3A7B
:100B10002000795F6D696E3A2000785F6D696E3AEA
:100B200020005265706F7274696E6720656E647321
:100B3000746F70207374617475730A00456E64730A
:100B4000746F70732025632025632025632025633F
:100B500000205A3A0020593A0020583A00656E6445
:100B600073746F7073206869743A2000486F6D6900
:100B70006E67206661696C656400556E6B6E6F7799
:100B80006E20636F6D6D616E643A20220020746F79
:100B90006F206C6F6E6720657874727573696F6E05
:100BA0002070726576656E7465640A00494E564120
:100BB0004C49442044415441004D32342053256C6B
:100BC000642054256C64004D3233202573007878FE
:100BD000636D643A2000473932205A257320452539
:100BE000730047323820582059006563686F3A0017
:100BF0004572726F723A00205A3A0020593A00202A
:100C0000436F756E7420583A00043700001E2900A7
:100C100000511B00005810000010090000CC040017
:100C200000780200004101000024F4D43050C38E4B
:100C300020C2A24017828B7011127A910D816CD95B
:100C40000AA861E108C7586607615143061E4B5D5B
:100C500005C145A7041A411104093D9803713931B2
:100C6000034036DB0265339102D4305402802E1DDE
:100C700002632CEE01752AC501B028A0011027815E
:100C8000018F2564012B244B01E0223401AC211F8C
:100C9000018D200D01801FFC00841EED00971DDFDB
:100CA00000B81CD200E61BC600201BBC00641AB2B0
:100CB00000B219A8000A19A0006A189900D117916A
:100CC0000040178B00B516840031167E00B31579ED
:100CD000003A157300C7146F0058146A00EE1366CB
:100CE000008813630025135E00C7125B006C125767
:100CF0000015125400C111510070114F0021114B09
:100D000000D61049008D10470046104400021042E2
:100D100000C00F4000800F3E00420F3C00060F3B1A
:100D200000CB0E3800930E37005C0E3500270E34D2
:100D300000F30D3200C10D3100900D3000600D2E1A
:100D400000320D2D00050D2C00D90C2B00AE0C2906
:100D500000850C29005C0C2700350C27000E0C26A2
:100D600000E80B2400C40B2400A00B23007D0B2300
:100D7000005A0B2100390B2100180B2000F80A1F24
:100D800000D90A1E00BB0A1E009D0A1D00800A1D14
:100D900000630A1C00470A1B002C0A1B00110A1AD8
:100DA00000F7091A00DD091900C4091900AB091977
:100DB00000920917007B091800630917004C0916F7
:100DC0000036091600200916000A091500F5081555
:100DD00000E0081400CC081400B8081400A408149B
:100DE00000900813007D0812006B081300580812C9
:100DF00000460812003408110023081100120811DF
:100E00000001081100F0071000E0071000D00710E3
:100E100000C0071000B0070F00A107100091070ED7
:100E20000083070F0074070F0065070E0057070EB9
:100E30000049070E003B070D002E070E0020070D8E
:100E40000013070D0006070D00F9060C00ED060D56
:100E500000E0060C00D4060C00C8060C00BC060C12
:100E600000B0060C00A4060B0099060C008D060BC2
:100E70000082060B0077060B006C060B0061060A69
:100E80000057060B004C060A0042060A0038060A04
:100E9000002E060A0024060A001A060A0010060997
:100EA0000007060A00FD050900F4050900EB050925
:100EB00000E2050900D9050900D0050900C70509A8
:100EC00000BE050900B5050800AD050800A5050927
:100ED000009C050800940508008C0508008405089E
:100EE000007C050800740508006C0507006505080E
:100EF000005D050700560508004E05070047050779
:100F0000004005080038050700310507002A0507DD
:100F100000230507001C050600160507000F05073E
:100F2000000805060002050700FB040600F504079B
:100F300000EE040600E8040600E2040700DB0406F5
:100F400000D5040600CF040600C9040600C3040649
:100F500000BD040600B7040600B1040500AC040699
:100F600000A6040600A00405009B040600950405E5
:100F700000900406008A040500850405008004062C
:100F8000007A04050075040500700405006B040573
:100F90000066040500610405005C040500570405B3
:100FA00000520405004D04050048040500430405F3
:100FB000003E0404003A0405003504050030040432
:100FC000002C04050027040400230405001E04046B
:100FD000001A04040016040500110404000D0404A2
:100FE00000090405000404040000040400FC0304D8
:100FF00000F8030400F4030400F0030400EC03040D
:1010000000E8030400E4030400E0030400DC03043C
:1010100000D8030400D4030400D0030400CC03046C
:1010200000C8030300C503030024F404D9201BC433
:101030000C5C0E9804C4095F0265077101F405F9A0
:1010400000FB04B30048048700C10369005803553E
:101050000003034500BE023A008402310053022A15
:10106000002902250004022000E4011C00C8011927
:1010700000AF0117009801140084011300710110E2
:10108000006101100051010E0043010D0036010BFB
:10109000002B010B0020010B00150109000C0109B8
:1010A0000003010800FB000800F3000800EB000744
:1010B00000E4000600DE000600D8000600D20006AC
:1010C00000CC000500C7000500C2000500BD0004FB
:1010D00000B9000400B5000400B1000400AD000434
:1010E00000A9000400A5000300A20003009F000463
:1010F000009B00030098000300950002009300038A
:1011000000900003008D0002008B000300880002A5
:10111000008600020084000300810002007F0002BC
:10112000007D0002007B00020079000200770001D0
:1011300000760002007400020072000100710002DB
:10114000006F0002006D0001006C0002006A0001E7
:1011500000690002006700010066000100650001EF
:1011600000640002006200010061000100600001F3
:10117000005F0002005D0001005C0001005B0001F7
:10118000005A0001005900010058000100570001F9
:1011900000560001005500010054000100530000FA
:1011A00000530001005200010051000100500001F5
:1011B000004F0001004E0000004E0001004D0001F4
:1011C000004C0001004B0000004B0001004A0001F0
:1011D00000490001004800000048000100470001EC
:1011E00000460000004600010045000000450001E7
:1011F00000440001004300000043000100420000E1
:1012000000420001004100000041000100400001D7
:10121000003F0000003F0001003E0000003E0001D2
:10122000003D0000003D0001003C0000003C0000CB
:10123000003C0001003B0000003B0001003A0000C0
:10124000003A0001003900000039000100380000B8
:1012500000380000003800010037000000370001AE
:1012600000360000003600000036000100350000A6
:10127000003500000035000100340000003400009B
:10128000003400010033000000330000003300018F
:101290000032000000320000003200010031000086
:1012A000003100000031000100300000003000007B
:1012B00000300001002F0000002F0000002F000070
:1012C000002F0001002E0000002E0000002E000163
:1012D000002D0000002D0000002D0000002D000159
:1012E000002C0000002C0000002C0000002C00014D
:1012F000002B0000002B0000002B0000002B000141
:10130000002A0000002A0000002A0000002A000134
:101310000029000000290000002900000029000029
:10132000002900010028000000280000002800001B
:10133000002800000028000100270000002700000E
:101340000027000000270000002700010026000001
:1013500000260000002600000026000000260001F4
:1013600000250000002500000025000000250000E9
:1013700000250000002500010024000000240000DA
:1013800000240000002400000024000100230000CD
:1013900000230000002300000023000000230000C1
:1013A00000230000002300010022000000220000B2
:1013B00000220000002200000022000000220001A4
:1013C0000021000000210000002100000021000099
:1013D0000021000000210000002100010020000089
:1013E000002000000020000000200000002000007D
:1013F000002000000020000000200001001F00006D
:10140000001F0000001F0000001F0000001F000060
:10141000001F0000001F0001001E0000001E000051
:10142000001E0000001E00000020403A00202F0097
:101430004D383420582059205A2045005468657290
:101440006D616C2052756E61776179004531205471
:101450004845524D414C2052554E41574159004B41
:10146000494C4C45442E2000202D20496E76616C5D
:101470006964206578747275646572206E756D623A
:10148000657220210A0048656174696E6720666193
:10149000696C65640045312048656174696E672038
:1014A0006661696C6564004D494E54454D50207429
:1014B0007269676765726564004531204572723AEA
:1014C000204D494E54454D50004D415854454D50C6
:1014D00020747269676765726564004531204572E2
:1014E000723A204D415854454D50006265640A00DF
:1014F0002C2073797374656D2073746F70706564DC
:1015000021204865617465725F49443A2000236474
:101510006566696E652044454641554C545F4B6491
:10152000200023646566696E652044454641554C3C
:10153000545F4B69200023646566696E65204445ED
:101540004641554C545F4B70200050494420417532
:10155000746F74756E652066696E69736865642161
:101560002050757420746865206C617374204B7012
:101570002C204B6920616E64204B6420636F6E7376
:1015800074616E74732066726F6D2062656C6F7724
:1015900020696E746F20436F6E666967757261743F
:1015A000696F6E2E680A00504944204175746F744B
:1015B000756E65206661696C6564212074696D656E
:1015C0006F75740A00546865726D616C2052756E97
:1015D0006177617900453120544845524D414C2096
:1015E00052554E415741590048656174696E6720F4
:1015F0006661696C65640045312048656174696E97
:1016000067206661696C65640050494420417574C7
:101610006F74756E65206661696C65642120546520
:101620006D706572617475726520746F6F20686982
:1016300067680A00204B643A2000204B693A20007A
:10164000204B703A20000A20436C61737369632059
:10165000504944200A002054753A2000204B753A26
:101660002000206D61783A2000206D696E3A2000DC
:1016700020643A200020626961733A200050494496
:10168000204175746F74756E652073746172740A8D
:1016900000504944204175746F74756E6520666111
:1016A000696C656421204261642065787472756498
:1016B0006572206E756D6265720A0070012C019072
:1016C000012701B0012201C0011D01F00118011024
:1016D00002130130020E016002090190020401C0F0
:1016E00002FF000003FA004003F5008003F000D081
:1016F00003EB002004E6007004E100E004DC00409D
:1017000005D700C005D2004006CD00D006C8008035
:1017100007C3003008BE00F008B900C009B400B02B
:101720000AAF00B00BAA00D00CA500000EA000501C
:101730000F9B00C01096005012910000148C00C046
:10174000158700B0178200B0197D00D01B7800000B
:101750001E730040206E0090226900F02464004057
:10176000275F0090295A00E02B5500102E500020D2
:10177000304B0010324600E033410090353C001001
:1017800037370070383200A0392D00B03A2800A059
:101790003B2300603C1E00103D1900903D140010DA
:1017A0003E0F00703E0A00C03E0500003F000040B2
:1017B0003FFBFF803FF6FFC03FF1FF4D3130362049
:1017C00050256920532569004D3130392053256952
:1017D0000053746F70207072696E74005265737577
:1017E0006D65207072696E7400506F7765722D4C54
:1017F0006F7373205265636F766572790052656608
:1018000072657368004D61696E0046616E20737089
:101810006565640046616E207370656564004E6F97
:101820007A7A6C65004E6F7A7A6C6500436F6E74DD
:10183000726F6C0054656D706572617475726500CD
:101840004D61696E004578747275646572004D6F04
:101850007665205A004D6F76652059004D6F76658C
:1018600020580050726570617265004D6F7665207A
:10187000302E316D6D004D6F766520316D6D004DF0
:101880006F76652031306D6D004D6F766520617823
:101890006973004578747275646572004D6F766582
:1018A000205A004D6F76652059004D6F766520589F
:1018B000004578747275646572004D6F7665205AC4
:1018C000004D6F76652059004D6F766520580050A9
:1018D00072656865617420504C4100436F6F6C64A1
:1018E0006F776E0044697361626C65207374657014
:1018F00070657273004D3834004C6576656C2063FA
:101900006F726E65727300486F6D65004D6F76651E
:101910002061786973004D61696E00486F6D6520C4
:10192000416C6C0047323800486F6D65205A0047A3
:101930003238205A0050726570617265004E6578C9
:101940007420636F726E65720050726570617265AB
:10195000004261627973746570205A00466C6F773B
:1019600000466C6F770046616E2073706565640099
:1019700046616E207370656564004E6F7A7A6C659F
:10198000004E6F7A7A6C6500537065656400537021
:10199000656564004D61696E0042616279737465CA
:1019A00070205A004E6F20534420636172640050CF
:1019B00072696E742066726F6D2053440053746FA9
:1019C00070207072696E7400526573756D65207059
:1019D00072696E74005061757365207072696E74FF
:1019E00000436F6E74726F6C005072657061726547
:1019F0000054756E6500496E666F2073637265658D
:101A00006E005072696E742061626F72746564005A
:101A1000473930004731205A2D323000205265615D
:101A200064792E005072696E74696E672E2E2E00D6
:101A30005072696E74207061757365640020202097
:101A400020002020202020200025753A25303275E6
:101A500000253032753A2530327500257564202511
:101A60003032753A25303275000920005A0059008D
:101A70005800506C65617365207265736574005021
:101A800052494E5445522048414C544544000006AA
:101A90000900FE0701920321207FFF07FF07FF00D7
:101AA0000000060000010707060200808080808099
:101AB0000080030202060105A0A00507070600003A
:101AC0005050F850F850500507070600002078A045
:101AD0007028F020050707060000C0C810204098B5
:101AE000180507070600006090A040A89068020350
:101AF00003060104C0408003070706010020408060
:101B000080804020030707060100804020202040FD
:101B10008005050506000120A870A820050505061A
:101B200000012020F820200203030602FFC04080AD
:101B3000050101060003F8020202060200C0C0050A
:101B40000505060001081020408005070706000073
:101B50007088888888887003070706010040C040A5
:101B6000404040E00507070600007088087080804C
:101B7000F8050707060000F81020100808F0050710
:101B80000706000010305090F810100507070600F7
:101B900000F880F0080888700507070600007080CC
:101BA00080F0888870050707060000F808102020DC
:101BB0002020050707060000708888708888700557
:101BC0000707060000708888780808700205050677
:101BD0000200C0C000C0C00206060602FFC0C0006E
:101BE000C0408004070706000010204080402010FD
:101BF000050303060002F800F80407070601008049
:101C0000402010204080050707060000708808105B
:101C100020002005070706000070880868A8A87043
:101C2000050707060000708888F888888805070778
:101C3000060000F08888F08888F005070706000095
:101C400070888080808870050707060000F088880B
:101C5000888888F0050707060000F88080F08080FB
:101C6000F8050707060000F88080F08080800507EF
:101C700007060000708880B888887005070706008E
:101C800000888888F8888888010707060200808015
:101C90008080808080050707060000381010101033
:101CA00090600507070600008890A0C0A0908805F6
:101CB0000707060000808080808080F805070706FF
:101CC000000088D8A888888888050707060000884B
:101CD00088C8A89888880507070600007088888843
:101CE000888870050707060000F08888F0808080EB
:101CF00005070706000070888888A8906805070710
:101D0000060000F08888F0A090880507070600000C
:101D1000788080700808F0050707060000F820208A
:101D200020202020050707060000888888888888EA
:101D300070050707060000888888888850200507F6
:101D4000070600008888888888A8500507070600CD
:101D5000008888502050888805070706000088887A
:101D60008850202020050707060000F808102040B2
:101D700080F8030707060100E08080808080E0058E
:101D80000505060001804020100803070706010032
:101D9000E02020202020E0050303060004205088D6
:101DA000050101060000F802020206020580400556
:101DB000050506000070087888780507070600000A
:101DC0008080B0C88888F005050506000070808016
:101DD0008870050707060000080868988888780555
:101DE00005050600007088F88070050707060000EA
:101DF0003048E0404040400506060600FF708888F5
:101E00007808700507070600008080B0C8888888B9
:101E10000107070602008000808080808003080898
:101E20000601FF200020202020A040040707060014
:101E300000808090A0C0A090030707060100C0406A
:101E400040404040E0050505060000D0A8A8A8A82D
:101E5000050505060000B0C8888888050505060048
:101E60000070888888700506060600FFF08888F0F4
:101E700080800506060600FF788888780808050532
:101E800005060000B0C880808005050506000070CA
:101E9000807008F00407070600004040E040404022
:101EA0003005050506000088888898680505050640
:101EB000000088888850200505050600008888A84D
:101EC000A850050505060000885020508805060624
:101ED0000600FF888888780870050505060000F868
:101EE000102040F8030707060100204040804040D2
:101EF0002001070706020080808080808080030721
:101F00000706010080404020404080050202060094
:101F100002689000000006000000060900FE0000B4
:101F200000000001090008FE000005080806000086
:101F300040F0C88888987810050808060000C0F8A6
:101F40008888888888F80505050600012030F83063
:101F5000200508080600002070F820202020E00559
:101F600009090600FF2070A8A8B888887020050914
:101F7000090600FFE080C0B0A8283028280509091C
:101F80000600FFF8A88888888888A8F8050A0A0645
:101F900000FE205050505088A8A888700303030604
:101FA000000340A04000000000000000000000000E
:101FB0000000000000000000000000000000000021
:101FC00000003FFFF00000000000000000000000E3
:101FD0000000380070000000000000000000000059
:101FE0000000338730000000000000000000000007
:101FF00000002787900000000000000000000000A3
:1020000000002F87D01DC000000007C000000000A6
:1020100000002F87D00D8000000008800000007FA6
:1020200080002F03D00D800000000080000000FF22
:10203000C0002030100D8787C70001079DC300FF37
:10204000C0002078100D884888800108464480FF31
:10205000C0002078100A8848818002084408407F28
:1020600080002030100A8FC70680020FC408407F0E
:1020700080002F03D00A880808800408040840FF65
:10208000C0002F87D00A884789800448440480FF15
:10209000C0002F87D01AC78846C00FC79F0300FF14
:1020A000C000278790000008400000000000003FAB
:1020B0000000338730000007800000000000001E91
:1020C0000000380070000000000000000000000C5C
:1020D00000003FFFF00000000000000000000000D2
:1020E00000000000000000000000000000000000F0
:1020F00000003FFFF00000000000000000000000B2
:102100000000380070000000000000000000000027
:10211000000030FC30000000000000000000000063
:10212000000020FC10000000000000000000000083
:1021300000002078101DC000000007C00000000053
:1021400000002030100D8000000008800000007F9B
:1021500080002C00D00D800000000080000000FFF7
:10216000C0002E31D00D8787C70001079DC300FF37
:10217000C0002F7BD00D884888800108464480FF2E
:10218000C0002F7BD00A8848818002084408407F25
:1021900080002E31D00A8FC70680020FC408407F0E
:1021A00080002C00D00A880808800408040840FF3A
:1021B000C0002030100A884789800448440480FF0A
:1021C000C0002078101AC78846C00FC79F0300FFC1
:1021D000C00020FC10000008400000000000003F8C
:1021E000000030FC30000007800000000000001EEE
:1021F0000000380070000000000000000000000C2B
:1022000000003FFFF00000000000000000000000A0
:1022100000000000000000000000000000000000BE
:1022200000000000000000000000000000000000AE
:10223000000000000000000000000000000000009E
:10224000000000000000000000000000000000008E
:10225000000000000000000000000000000000007E
:10226000000000000000000000000000000000006E
:10227000000000000000000000000000000000005E
:10228000000000000000000000000000000000004E
:10229000000000000000000000000000000000003E
:1022A000000000000000000000000000000000002E
:1022B000000000000000000000000000000000001E
:1022C000000000000000000000000000000000000E
:1022D00000000000000000000000000000000000FE
:1022E00000000000000000000000000000000000EE
:1022F00000000000000000000000000000000000DE
:1023000000000000000000000000000000000000CD
:1023100000000000000000000000000000000000BD
:1023200000000000000000000000000000000000AD
:10233000000000000000200000000000000000007D
:10234000000000000000DC000000000000000000B1
:10235000000000000000EF0000000000000000008E
:10236000000000000001F7E0000000000000000095
:10237000000000000003FBF000000000000000006F
:10238000000000000003FCFC000000000000000052
:10239000000000000007FF7E0000000000000000B9
:1023A000000000000007FFBF00008080EE0E1B074A
:1023B0000E338303B00FFFDF8000C0C0E71C7BC774
:1023C0000E33C307B80FFFEFC001C0E0E73CFBC707
:1023D0000E33E30F3C1FFFF7E000E078E338E087BF
:1023E0000E30E30C001FFFFBF002E03CE071C00781
:1023F0000E30E31C003FFFF43002709EE0E1C007A6
:102400000E33C31C007FFFEFC00770CFE0E1C007B1
:102410000E33C31C003FFFEFF00638E7E0C1C007F2
:102420000E30231C001FFFDFE00EF8E3E0C0E007E2
:102430000E30E31C001FFFBFC00CFCE0E0C0F1C782
:102440009C33E30F1C0FFF7F801C0CE060C07BC33C
:102450009C33C307BC07FF7F00180EE020C03B8100
:1024600090338303B007FEFE000000000000000070
:10247000000000000003FDFC000000000000000060
:10248000000000000001FBF8000000000000000058
:10249000000000000001F7F0000000000000000054
:1024A000000000000000F7C0000000000000000075
:1024B0000000000000006E000000000000000000AE
:1024C00000000000000050000000000000000000BC
:1024D00000000000000000000000000000000000FC
:1024E00000000000000000000000000000000000EC
:1024F00000000000000000000000000000000000DC
:1025000000000000000000000000000000000000CB
:1025100000000000000000000000000000000000BB
:1025200000000000000000000000000000000000AB
:10253000000000000000000000000000000000009B
:10254000000000000000000000000000000000008B
:10255000000000000000000000000000000000007B
:10256000000000000000000000000000000000006B
:10257000000000000000000000000000000000005B
:10258000000000000000000000000000000000004B
:10259000000000000000000000000000000000003B
:1025A000000000000000000000000000000000002B
:1025B000000000000000000000000000000000001B
:1025C000000000000000000000000000000000000B
:1025D00000000000000000000000000000000000FB
:1025E00000000000000000000000000000000000EB
:1025F00000000000000000000000000000000000DB
:102600000000000000000000010200090A000000B4
:1026100000040308070000000000000000000000A4
:1026200000000000000102040810204080010204A4
:1026300008102040800102040810204080804020C3
:10264000100804020102020202020202020404044F
:10265000040404040403030303030303030101014B
:1026600001010101010000200023002600290000D3
:10267000002200250028002B000000210024002754
:10268000002A004E414E494E495459494E46CDCC40
:10269000CC3D0AD7233C17B7D13877CC2B32959550
:1026A000E6241FB14F0A000020410000C84200404C
:1026B0001C4620BCBE4CCA1B0E5AAEC59D740040C1
:1026C0007A10F35A00A0724E18090010A5D4E80041
:1026D00000E87648170000E40B54020000CA9A3B59
:1026E000000000E1F50500008096980000004042DF
:1026F0000F000000A086010000001027000000006D
:10270000E803000000006400000000000A00000070
:1027100000000100000000002C76D888DC674F081C
:1027200023DFC1DFAE59E1B1B796E5E3E453C63A22
:10273000E651997696E8E6C28426EB898C9B62ED99
:10274000407C6FFCEFBC9C9F40F2BAA56FA5F49053
:10275000055A2AF75C936B6CF9676DC11BFCE0E4CA
:102760000D47FEF520E6B500D0ED902E0300943520
:1027700077050080841E080000204E0A000000C873
:102780000C333333330F986E12831141EF8D2114C4
:10279000893BE65516CFFEE6DB18D1844B381BF794
:1027A0007C1D901DA4BBE424203284725E22810033
:1027B000C9F124ECA1E53D27F03614746FAB0A375C
:1027C00011241FBECFEFD0E4DEBFCDBF12E0A0E0EA
:1027D000B1E0E6EDF9E801E00BBF02C007900D9211
:1027E000AE32B107D9F729E1AEE2B2E001C01D92E5
:1027F000A132B207E1F717E2CEEBD7E200E006C064
:1028000022970109FE010BBF0E94ABBAC83BD1075A
:1028100080E00807A9F70E9400B70C94D9C40C9473
:1028200000001F920F920FB60F9211240BB60F9259
:102830002F938F939F93EF93FF932091B002E0919A
:10284000AF0281E08E0F8F779091C600821729F03A
:10285000F0E0E15DFD4F9083E82FE093AF02FF9140
:10286000EF919F918F912F910F900BBE0F900FBE04
:102870000F901F9018959B01AC01211581EE380730
:102880004105510559F182E08093C00060E079E094
:102890008DE390E00E9464BA215031094109510949
:1028A000CA01B90122E030E040E050E00E9464BA81
:1028B0003093C5002093C4008091C1008061809353
:1028C000C1008091C10088608093C1008091C100E7
:1028D00080688093C10010922E0208951092C0006B
:1028E00020E130E0E5CF8091AF029091B0028917EE
:1028F00059F0E92FF0E0E15DFD4F80819F5F9F7708
:102900009093B00290E008958FEF9FEF089580912B
:10291000AF028093B002089591E090932E029091BF
:10292000C00095FFFCCF8093C6000895AF92BF9280
:10293000CF92DF92EF92FF920F931F93CF93DF938B
:10294000CDB7DEB7A0970FB6F894DEBF0FBECDBFF0
:102950006115710581059105B1F1B12CC42ED12C01
:10296000E12CF12CAA24A394AB0C01E010E00C0F95
:102970001D1F0B0D111DB7FC1A95A70196010E9492
:1029800042BAF8016083B901CA0161157105810578
:10299000910511F41B2D12C0BA2CE4CFE1E0F0E058
:1029A000EC0FFD1FE10FF11D17FDFA9580818A30B4
:1029B00040F490E3890F0E948C1411501F3F71F76F
:1029C00015C097E3F7CF80E3A0960FB6F894DEBF6B
:1029D0000FBECDBFDF91CF911F910F91FF90EF9070
:1029E000DF90CF90BF90AF900C948C14A0960FB650
:1029F000F894DEBF0FBECDBFDF91CF911F910F9135
:102A0000FF90EF90DF90CF90BF90AF900895411569
:102A1000510519F4862F0C948C140C949614AB0168
:102A2000682F70E080E090E00C940715AB01BC01CA
:102A300080E090E00C940715CF92DF92EF92FF9226
:102A40006B017C0197FF0BC08DE20E948C14F09407
:102A5000E094D094C094C11CD11CE11CF11C4AE04C
:102A6000C701B601FF90EF90DF90CF900C949614C1
:102A70004115510519F4862F0C948C144A305105D8
:102A800011F40C941C150C949614AB01BC0188270E
:102A900077FD8095982F0C9438158F929F92AF9266
:102AA000BF92CF92DF92EF92FF92CF936B017C01A6
:102AB000B42E20E030E0A9010E9488B787FF07C04C
:102AC0008DE20E948C14F7FAF094F7F8F094C0E0CD
:102AD00060E070E080E09FE3CB1541F02DEC3CEC32
:102AE0004CEC5DE30E945EB9CF5FF6CF9B01AC0179
:102AF000C701B6010E9411B76B017C010E94F9B7B2
:102B00004B015C014AE00E949614CC2391F1C5016F
:102B1000B4010E9425B89B01AC01C701B6010E9417
:102B200010B76B017C018EE20E948C1420E030E033
:102B300040E251E4C701B6010E945EB96B017C011D
:102B40000E94F4B74B01AA2497FCA094BA2CC501AB
:102B5000B4010E941C15C501B4010E9427B89B0155
:102B6000AC01C701B6010E9410B76B017C01C150D6
:102B7000E9F6CF91FF90EF90DF90CF90BF90AF90AC
:102B80009F908F9008950C944D15EF92FF920F93A4
:102B90001F93CF93DF931F92CDB7DEB7082F162F69
:102BA000EFE1F3E084917F012FEFE21AF20A88232C
:102BB00031F099830E948C14F7019981F3CFE02FB3
:102BC000F92F84917F019FEFE91AF90A882321F0F8
:102BD0000E948C14F701F5CFEDE1F3E084917F01C1
:102BE000AFEFEA1AFA0A882321F00E948C14F70149
:102BF000F5CF6AE070E0812F90E00E9445158AE0F1
:102C00000F90DF91CF911F910F91FF90EF900C9457
:102C10008C14CF92DF92EF92FF920F931F93CF937A
:102C2000DF93EC010E94CFB40E811F812885398586
:102C3000011511052105310559F53C853323A9F10D
:102C40002A8531503C8731E0320F3A874D85341365
:102C500001C01A86FE0134E0239FE00DF11D11240E
:102C600006851785208931890A831B832C833D8340
:102C70006B017C01C00ED11EE11CF11CCE82DF82F3
:102C8000E886F9868C819D81892B79F0149A0DC094
:102C90006B017C01C01AD10AE20AF30AF7FC05C0F5
:102CA00014981E821F8218861986DF91CF911F917A
:102CB0000F91FF90EF90DF90CF900895CF92DF9229
:102CC000EF92FF920F931F93CF93DF93EB01FC01E1
:102CD00060817181828193812CE3C22ED12CE12C01
:102CE000F12CA70196010E9442BA162F072FCA01A4
:102CF000B901A70196010E9442BAF62EE72ECA0139
:102D0000B90128E130E040E050E00E9442BAFB0106
:102D1000C9016DE671E00E941ABA9B014F2D5E2D2C
:102D200021153105D9F00F931F93EF92FF92FF9376
:102D3000EF939F938F933F932F9388EA95E09F9310
:102D40008F93DF93CF930E9461BF8DB79EB70E968E
:102D50000FB6F8949EBF0FBE8DBF5BC00097C9F041
:102D60000F931F93EF92FF92FF93EF939F938F9395
:102D700088E995E09F938F93DF93CF930E9461BF83
:102D8000EDB7FEB73C960FB6F894FEBF0FBEEDBF91
:102D900040C03097B9F00F931F93EF92FF92FF93CB
:102DA000EF938CE895E09F938F93DF93CF930E94EE
:102DB00061BF8DB79EB70A960FB6F8949EBF0FBE3F
:102DC0008DBF27C0452BA9F00F931F93EF92FF9261
:102DD00084E895E09F938F93DF93CF930E9461BF28
:102DE000EDB7FEB738960FB6F894FEBF0FBEEDBF35
:102DF00010C00F931F9380E895E09F938F93DF930C
:102E0000CF930E9461BF0F900F900F900F900F9083
:102E10000F90DF91CF911F910F91FF90EF90DF9076
:102E2000CF90089581548A31D8F5A82FB0E0409111
:102E30001E0A50911F0A6091200A7091210A04C055
:102E400076956795579547958A95D2F740FF28C0A4
:102E5000E0912A0AF0912B0AAC5FB54F8C91882340
:102E600039F1E80FF11D808190ED980F9A3080F0D4
:102E70008E3229F4818180538A3050F019C08D320E
:102E800011F08B32A9F4818190ED980F9A3050F4B3
:102E90009E2F8F2F9093260A8093270A81E0089512
:102EA00080E008958E3221F4828180538A3080F34D
:102EB00090E080E0EFCF0E941217882339F081E084
:102EC0002091260A3091270A232B09F480E00895E7
:102ED0001F93CF93DF938091260A9091270A009742
:102EE00001F1FC01EF011191212F2F7D99F0153493
:102EF00011F01536B9F7188260E070E08091260A6B
:102F00009091270A0E94D0BA1883562F472F382F46
:102F1000292F0BC060E070E0DF91CF911F910C94DE
:102F2000D0BA50E040E030E020E0652F742F832FCE
:102F3000922FDF91CF911F9108958091260A909151
:102F4000270A009731F04AE050E060E070E00C940E
:102F500041BC60E070E0CB0108958091260A909119
:102F6000270A009731F04AE050E060E070E00C94EE
:102F700075BD60E070E0CB0108950E949D1797FD3C
:102F80000EC00E949D176F3F71058105910509F0E4
:102F90001CF40E949D1701C06FEF862F089580E0FA
:102FA00008958091260A9091270A892B41F00E946A
:102FB000BD1791E0811101C090E0892F089581E053
:102FC00008952EE135E04AE155E066E175E082E1E1
:102FD00095E00C945D724F925F926F927F929F92F8
:102FE000AF92BF92CF92DF92EF92FF920F931F9317
:102FF000CF93DF93CDB7DEB728970FB6F894DEBF37
:103000000FBECDBFF82E2A013B01D02E912EB22E3D
:10301000C32E082F10E0F801E25DF74FE491AA24D7
:10302000A3941E160CF4A12CEE24E39420E030E0CF
:10303000A901C301B2010E942AB918160CF0E12CB3
:10304000AE24000F111F000F111FF801EE5EFA4FA2
:1030500010821182128213820E94E11782E0F8121C
:1030600004C08091F704811138C0F801EE5EFA4F78
:103070004082518262827382E090570320E030E008
:10308000A9016D2D792D8B2D9C2D0E9488B7811162
:1030900008C00B5A174FF80185919591A591B491ED
:1030A00004C08D2D992DAB2DBC2D8D839E83AF83B8
:1030B000B88719821A821B821C82CE0101966C018C
:1030C0008E010B5F1F4F2EE135E04AE155E066E1CE
:1030D00075E082E195E00E94B7710E948A67AA209C
:1030E00049F092E0F91204C08091F704811102C006
:1030F0000E94BC5D28960FB6F894DEBF0FBECDBF10
:10310000DF91CF911F910F91FF90EF90DF90CF90C3
:10311000BF90AF909F907F906F905F904F90089579
:103120004F925F926F927F929F92AF92BF92CF9297
:10313000DF92EF92FF920F931F93CF93DF93982E1E
:10314000C82FD0E0FE01E25DF74F6491FE01EE0F63
:10315000FF1FEE0FFF1FE35CF74F45905590659002
:103160007490772767FD7095872F972F0E9427B857
:103170006B017C0120E030E040EC5FE3C301B20171
:103180000E945EB9A70196010E945EB9AB01BC0125
:1031900000E010E09801892D0E94EB17FE01EE0F70
:1031A000FF1FEE0FFF1FEF5CF74F25913591459103
:1031B0005491C701B6010E945EB96B017C0120E009
:1031C00030E0A9010E9488B75E01AA0CBB1CAA0CC2
:1031D000BB1C882309F449C000E010E09801B70146
:1031E000A6017058892D0E94EB17FE01EE58F94F89
:1031F0006491611119C0EAEEFBE084918F010F5FC9
:103200001F4F882321F00E948C14F801F6CFE0E5CF
:10321000F6E084918F010F5F1F4F882321F00E94F9
:103220008C14F801F6CF6AE0F501EB5AF74F4590A0
:1032300055906590749070E080E090E00E9427B80F
:103240009B01AC01C301B2010E948CB72B013C0170
:10325000A7019601C701B6010E9411B7AB01BC01DD
:1032600093018201892D0E94EB1781E090E001C05B
:10327000880F9A94EAF790910005982B9093000597
:1032800090910105982B90930105F501E75BF74FAD
:1032900085919591A591B4918E01000F111F000F9A
:1032A000111FE801CE5EDA4F88839983AA83BB831E
:1032B0000E94E117F801EE5FFA4F88819981AA8197
:1032C000BB8180839183A283B383DF91CF911F91D0
:1032D0000F91FF90EF90DF90CF90BF90AF909F90B5
:1032E0007F906F905F904F9008956EE175E083E05E
:1032F0000C9408731092F4041092F2041092F304E8
:1033000008959091F204E92FF0E0E55EFC4F808390
:103310009F5F943018F49093F20402C01092F2046C
:103320008091F4048F5F8093F4040895CF93FC019F
:10333000C62F80818B33A1F08091F404843080F417
:103340002091F20430E6239FC0011124BF018E5862
:103350009C4F0E9432BF8C2F0E94811981E001C0D6
:1033600080E0CF9108950F931F93CF93DF93EC01EB
:1033700060E00E9496198823C9F0EAEEFBE0849190
:103380008F010F5F1F4F882321F00E948C14F801DA
:10339000F6CFBE0181E298E00E94207682E20E9490
:1033A0008C148AE00E948C1481E001C080E0DF91DF
:1033B000CF911F910F910895DF92EF92FF920F939B
:1033C0001F93CF93DF93CDB7DEB76E970FB6F89408
:1033D000DEBF0FBECDBF60917003709171036115A8
:1033E000710559F14DE150E08E010F5F1F4FC8018B
:1033F0000E94C1BE1E8EF8017F01E01AF10AD19031
:10340000DD2019F08AE0D812F7CFF801EE0DFF1D8C
:103410001082C8010E94B319882379F0DD20B1F031
:103420008FEFE81AF80A80917003909171038E0D66
:103430009F1D909371038093700381E0209170032E
:1034400030917103232B29F480E003C080E090E0E9
:10345000F0CF6E960FB6F894DEBF0FBECDBFDF91F2
:10346000CF911F910F91FF90EF90DF90089590936F
:103470007103809370030C94DC19CF92DF92EF926A
:10348000FF920F931F93CF93DF938091250588239D
:1034900009F4D5C08091F404811102C01092B302E6
:1034A000FF24F3944091E4075091E5076091E6070B
:1034B0007091E7078091E0079091E107A091E20702
:1034C000B091E307481759076A077B0708F4F12C06
:1034D000C0E0D0E0EE24E394E0E6DE2E8091F40438
:1034E000843008F0ACC0F110AAC08091B302811101
:1034F000A6C080911C0790911D07A0911E07B09156
:103500001F078093E4079093E507A093E607B09325
:10351000E70784E197E00E94F83BC82EFF24F3946C
:103520000091E4071091E5072091E6073091E70745
:103530004091E0075091E1076091E2077091E30745
:103540000417150726073707C0F4F12C8F3F2FEF1C
:10355000920739F12AE0821709F442C02DE0821760
:1035600009F43EC023E2821719F02AE382134EC009
:103570002091B20221114AC02EC083E295E00E9440
:10358000E85180912505811124C0E8EDF6E0849191
:103590008F010F5F1F4F8823F1F00E948C14F801F8
:1035A000F6CFE0EFFBE084918F010F5F1F4F882380
:1035B00021F00E948C14F801F6CFE9ECF6E084913A
:1035C0008F010F5F1F4F882331F00E948C14F80188
:1035D000F6CFC0E0D0E083E2C81202C0E092B302AE
:1035E0001092B202209719F40E94978577CF8091AC
:1035F000F204D89EC00DD11D1124CE58DC4F188284
:1036000080E00E948119C0E0D0E068CFCF35D105BD
:1036100008F064CF2BE3C21202C0E092B202209104
:10362000B20221115BCF9091F204FE01D99EE00D10
:10363000F11D1124EE58FC4F808321964FCFDF916E
:10364000CF911F910F91FF90EF90DF90CF90089551
:10365000FF920F931F93CF93DF93EC0184E50E94B9
:103660005B17882351F10E94BD17F82E18160CF530
:10367000EAEEFBE084918F010F5F1F4F882321F05A
:103680000E948C14F801F6CF8DE40E948C146AE03D
:1036900070E0CE010E9416156F2D772767FD70959B
:1036A00086EB96E00E9447768AE00E948C1481E0C7
:1036B00009C080932B0380E005C08091570380935D
:1036C0002B0380E0DF91CF911F910F91FF90089520
:1036D000CF92DF92EF920F931F93CF93DF9300D09F
:1036E00000D0CDB7DEB7E090570319821A821B8253
:1036F0001C82CE0101966C010BE111E02EE135E058
:103700004AE155E066E175E082E195E00E94B7711B
:103710000F900F900F900F90DF91CF911F910F910D
:10372000EF90DF90CF9008952F923F924F925F924B
:103730006F927F928F929F92AF92BF92CF92DF92C1
:10374000EF92FF920F931F93CF93DF93CDB7DEB726
:103750002A970FB6F894DEBF0FBECDBF2B013C01F8
:103760002D833E834F83588747015801DA86C986E7
:1037700080911B0190911C01A0911D01B0911E012F
:1037800089839A83AB83BC83D601EC901196FC901D
:10379000119712960C91129713961C9120E030E02D
:1037A000A901B701C8010E9488B7811107C0EDE5E2
:1037B000F8E0C590D590E590F49004C0C701D80119
:1037C0006C017D01A501940160911A0570911B05A2
:1037D00080911C0590911D050E9488B787FF12C03B
:1037E000C0921B01D0921C01E0921D01F0921E01BB
:1037F00080921A0590921B05A0921C05B0921D059F
:103800000E94681BE985FA8510810181328023803E
:1038100020E030E0A901612F702F832D922D0E94AE
:1038200088B7811105C015E505E525E033E402C040
:10383000232D322D812F902FD90180931B0190933E
:103840001C01A0931D01B0931E01409212055092DD
:10385000130560921405709215058D819E81AF81CC
:10386000B8858093160590931705A0931805B0931B
:1038700019050E94681BA501940160911A057091B9
:103880001B0580911C0590911D050E942AB91816F0
:1038900094F4C0921B01D0921C01E0921D01F092A1
:1038A0001E0180921A0590921B05A0921C05B092F1
:1038B0001D050E94681B0E948A6789819A81AB81DD
:1038C000BC8180931B0190931C01A0931D01B093B8
:1038D0001E012A960FB6F894DEBF0FBECDBFDF9152
:1038E000CF911F910F91FF90EF90DF90CF90BF90FD
:1038F000AF909F908F907F906F905F904F903F9090
:103900002F900895CF92DF92EF92FF920F931F9323
:103910006B01FC01E080F18002811381209116058A
:1039200030911705409118055091190560911205C5
:103930007091130580911405909115050E94941BB8
:103940001F910F91FF90EF90DF90CF900895CF924D
:10395000DF92EF92FF920F931F936A01E0901A0596
:10396000F0901B0500911C0510911D05FB012081A5
:10397000318142815381FC01608171818281938117
:103980000E94941B1F910F91FF90EF90DF90CF90BA
:10399000089580911B0190911C01A0911D01B0918F
:1039A0001E0180936C0390936D03A0936E03B093FC
:1039B0006F038091190190911A0190936B0380938A
:1039C0006A0384E690E090931A01809319010895A8
:1039D00080916C0390916D03A0916E03B0916F0381
:1039E00080931B0190931C01A0931D01B0931E01B5
:1039F00080916A0390916B0390931A01809319014F
:103A00000895AF92BF92CF92DF92EF92FF920F9301
:103A10001F93CF93DF93F6EEEF2EF1E0FF2E02E03F
:103A200015E0C2E1D5E0A6E6CA2EA3E0DA2EF70142
:103A300081917F010E941217882319F10E94681753
:103A4000B62EA72EDC01F6018081811104C0809181
:103A50005603882359F0288139814A815B816B2D77
:103A60007A2DCD010E9411B7FB0103C0EB2DFA2D79
:103A7000CD01AF01BC01F8014083518362837383A0
:103A800009C088819981AA81BB81F80180839183D3
:103A9000A283B3830C5F1F4F2496FFEFCF1ADF0A78
:103AA0008AEEE81681E0F80611F686E40E945B17BC
:103AB0008823C9F00E94681720E030E0A9010E9425
:103AC0002AB9181684F40E94681720E030E040E715
:103AD00052E40E948CB760931B0170931C01809389
:103AE0001D0190931E01DF91CF911F910F91FF90C7
:103AF000EF90DF90CF90BF90AF900895CF92DF927C
:103B0000EF92FF92CF93DF930E94CFB46B017C01C1
:103B100080915403811167C080910601882309F4C4
:103B200062C020911A03222309F45DC0809116031C
:103B300090911703A0911803B0911903B701A60142
:103B4000481B590B6A0B7B0B77FD60C0233009F1D2
:103B500034F421300CF447C0EAEEFBE006C0243018
:103B600009F041C0EAEEFBE02AC08491EF01219602
:103B7000882321F00E948C14FE01F7CFE4EAF6E0DE
:103B80008491EF012196882371F10E948C14FE012B
:103B9000F7CFEAEEFBE08491EF012196882321F034
:103BA0000E948C14FE01F7CFEDE8F6E08491EF015E
:103BB00021968823C1F00E948C14FE01F7CF8491D6
:103BC000EF012196882321F00E948C14FE01F7CF8B
:103BD000E5E7F6E08491EF012196882321F00E9429
:103BE0008C14FE01F7CF2091060130E0A8EEB3E07F
:103BF0000E9489BA6C0D7D1D8E1D9F1D609316035A
:103C0000709317038093180390931903DF91CF915A
:103C1000FF90EF90DF90CF90089583E50E945B17AF
:103C2000882381F00E949D17AB01BC014093E407FB
:103C30005093E5076093E6077093E70784E197E008
:103C40000E94CE3C83E295E00E94654A84E50E9492
:103C50005B17882321F00E949D170C9411800C940F
:103C60006B800F931F93CF93DF93CDB7DEB7699728
:103C70000FB6F894DEBF0FBECDBF0E9437806E8BAB
:103C80007F8B888F998FBE016F5F7F4FCE014696E5
:103C90000E945E1660E0CE0101960E945FA5EAEEEA
:103CA000FBE084918F010F5F1F4F882321F00E945A
:103CB0008C14F801F6CFBE016F5F7F4F8CEB95E05F
:103CC0000E9420768AE00E948C1469960FB6F894C0
:103CD000DEBF0FBECDBFDF91CF911F910F91089531
:103CE000CF938091250581110E948A6780912605D6
:103CF0008823A9F180E50E945B17882321F00E94A8
:103D0000D117C82F04C080E50E941217C82F6091F8
:103D1000280A7091290A2C2F41E083E295E00E9445
:103D20002D4D83E50E945B17882381F00E949D172B
:103D3000AB01BC014093E4075093E5076093E607AD
:103D40007093E70784E197E00E94CE3C83E295E020
:103D50000E94654AC11103C0CF910C946B80CF9132
:103D60000895CF93DF93E0EFFBE08491EF0121967C
:103D7000882321F00E948C14FE01F7CFE4E4F5E0E3
:103D80008491EF012196882321F00E948C14FE017A
:103D9000F7CFDF91CF9108951F93CF93DF9383E502
:103DA0000E945B17882381F10E94BD17C82F80E510
:103DB0000E945B17882341F10E94BD17182F87FDD1
:103DC00023C0E3E5F5E08491181731F0319685E0E2
:103DD000E038F807C1F705C0DF91CF911F910C942F
:103DE000B11E61E0812F0E9420B66C2F812F0E94AE
:103DF00059B6D0E0BE01812F0E9480B5143021F465
:103E0000D0935903C0935803DF91CF911F91089528
:103E100088E690E00E94281B81112AC0809122052B
:103E200083FD26C083E50E945B178823F9F00E947A
:103E300068170E94F4B7653081E0780714F064E0F9
:103E400071E07093E8166093E71680E00E946B8340
:103E50000E94681720E030E04AEA52E40E9488B7E6
:103E6000181624F00E94CC7F0E94C4A50C94E47321
:103E70000895DF92EF92FF920F931F93CF93DF93FA
:103E800083E50E941217882359F083E50E945B178F
:103E9000882319F00E94BD1701C080E0809322059D
:103EA000EAEEFBE08491EF012196882321F00E9445
:103EB0008C14FE01F7CFEDE3F5E08491EF0121963C
:103EC000882321F00E948C14FE01F7CF80912205F7
:103ED000882381F103E315E0C0E0D0E020E0809189
:103EE000220590E00C2E02C0959587950A94E2F782
:103EF00080FF17C0DD24D394D20E222319F08CE268
:103F00000E948C14F80125913491F9018491790172
:103F1000FFEFEF1AFF0A882329F00E948C14970103
:103F2000F4CFD22E21960E5F1F4FC530D10569F018
:103F30002D2DD5CFEFE2F5E08491EF012196882376
:103F400021F00E948C14FE01F7CF8AE0DF91CF911F
:103F50001F910F91FF90EF90DF900C948C14CF93F2
:103F6000DF9383E50E945B17882351F00E94BD1701
:103F70008D3308F08CE380930601DF91CF91089593
:103F8000EAEEFBE08491EF012196882321F00E9464
:103F90008C14FE01F7CF4091060150E060E070E024
:103FA00089EF94E00E949C768AE0DF91CF910C9497
:103FB0008C14CF93DF9383E50E945B17882319F05D
:103FC0000E949D1702C060E070E0EB01DD27C23067
:103FD000D105B0F0E0EFFBE08491EF01219688235A
:103FE00021F00E948C14FE01F7CFE7EFF2E08491FC
:103FF000EF0121968823A1F10E948C14FE01F7CFD6
:1040000088E40E945B178823A1F00E949D176A3AFA
:10401000710534F0663F71052CF065EF70E002C069
:104020006AEA70E0FE01EE0FFF1FEE58F84E718352
:10403000608386E40E945B17882391F00E949D179D
:104040006F3F710519F014F06FEF70E0CC0FDD1FBA
:10405000C659D84E77FF02C060E070E0798368836C
:10406000DF91CF91089583E50E945B17882399F033
:104070000E94681720E030E04AE754E40E945EB9ED
:104080000E94F9B7609307017093080180930901BA
:1040900090930A01089588E50E941217811111C0BA
:1040A00089E50E94121781110CC08AE50E9412173F
:1040B000811107C085E40E941217811102C00C947F
:1040C00065670E948A6788E50E941217882331F08D
:1040D0005E9A809100058E7F8093000589E50E949D
:1040E0001217882331F05E9A809100058D7F8093AE
:1040F00000058AE50E941217882339F0159A8091ED
:1041000000058B7F80930005089508957F928F921C
:104110009F92AF92BF92CF92DF92EF92FF920F9356
:104120001F93CF93DF9306EE11E0CEE9DAE0712C16
:10413000F80181918F010E941217882309F46CC045
:10414000F3E07F1263C00E9468176B017C0120E0DE
:1041500030E040EA51E40E9488B787FF4EC0A701D3
:1041600096016091AA0A7091AB0A8091AC0A909175
:10417000AD0A0E948CB74B015C019B01AC016091C0
:10418000760A7091770A8091780A9091790A0E9454
:104190005EB96093760A7093770A8093780A909359
:1041A000790AA50194016091BA0A7091BB0A8091C5
:1041B000BC0A9091BD0A0E945EB96093BA0A7093DE
:1041C000BB0A8093BC0A9093BD0A6091CE0A70919D
:1041D000CF0A8091D00A9091D10A0E9425B8A501FA
:1041E00094010E945EB90E94F9B76093CE0A709361
:1041F000CF0A8093D00A9093D10AC092AA0AD09293
:10420000AB0AE092AC0AF092AD0A06C00E946817B1
:10421000688379838A839B837394249684E07812DD
:1042200087CFDF91CF911F910F91FF90EF90DF909B
:10423000CF90BF90AF909F908F907F900C94BE7363
:10424000CF93DF93EDE4F6E08491EF01219688238C
:1042500021F00E948C14FE01F7CF6091120570913D
:104260001305809114059091150542E050E00E94DD
:10427000C315E9E4F6E08491EF012196882321F04B
:104280000E948C14FE01F7CF6091160570911705FE
:10429000809118059091190542E050E00E94C315E5
:1042A000E5E4F6E08491EF012196882321F00E9455
:1042B0008C14FE01F7CF60911A0570911B05809157
:1042C0001C0590911D0542E050E00E94C315E1E4F9
:1042D000F6E08491EF012196882321F00E948C144E
:1042E000FE01F7CF60911E0570911F05809120059A
:1042F0009091210542E050E00E94C315DF91CF91DB
:104300000C942C7F2F923F924F925F926F927F92EC
:104310008F929F92AF92BF92CF92DF92EF92FF92D5
:104320000F931F93CF93DF93CDB7DEB768970FB688
:10433000F894DEBF0FBECDBF182F90910005977087
:10434000973079F48FE40E945B17882329F00E944C
:10435000D11781119AC105C08FE40E9412178111F3
:1043600094C10E948A670E94C91C81E00E94B45DCA
:10437000111119C088E50E941217082F89E50E94C3
:104380001217182F8AE50E941217011108C0111187
:1043900011C0312C212C882399F001E018C0082F7E
:1043A000112389F001C001E0102F3324339422241B
:1043B00023940DC0082F33243394212C10E007C020
:1043C00000E011E004C0312C2224239410E080E1AD
:1043D000E2E1F5E0A2E0B5E001900D928A95E1F707
:1043E00082E50E945B17882329F00E9468176B0101
:1043F0007C0106C0C12CD12C90EAE92E90E4F92E64
:104400008091F704811131C020E030E0A901C7019B
:10441000B6010E9488B7882341F1111105C021100F
:1044200003C0332009F416C1C0920A05D0920B05CF
:10443000E0920C05F0920D0520911A0530911B05B4
:1044400040911C0550911D05C701B6010E942AB973
:1044500018165CF419821A821B821C82BE016F5FDF
:104460007F4F8AE095E00E94821C11110CC022202F
:1044700009F4E9C0311007C080E00E9490181123B0
:1044800009F4E1C0E2C010921605109217051092CF
:10449000180510921905109212051092130510922A
:1044A0001405109215050E94E117EEE2F8E0249140
:1044B000288FEDE3F8E0C590D590E590F490E1E425
:1044C000F8E085909590A590B490A5019401C7015E
:1044D000B6010E942AB918164CF4A7019601C5012D
:1044E000B4010E948CB72B013C0108C0A5019401C6
:1044F000C701B6010E948CB72B013C01E9E5F8E049
:1045000085919591A591B4918D879E87AF87B88B42
:10451000E5E5F8E085919591A591B491898B9A8B09
:10452000AB8BBC8B2D853E854F855889BC01CD0159
:104530000E9488B787FF09C099899D8BAA89AE8B95
:10454000BB89BF8B2C892D8708C08D858D8B9E855F
:104550009E8BAF85AF8BB889BD87A3019201C30144
:10456000B2010E945EB920E030E040E85FE30E94C3
:1045700011B70E94C5B99B01AC016D897E898F89F5
:104580009D850E945EB969877A878B879C87EFE259
:10459000F8E0749020E030E040EC5FE3C501B40146
:1045A0000E945EB94B015C01672D772767FD70950E
:1045B000872F972F0E9427B89B01AC01C501B4013A
:1045C0000E945EB969837A838B839C8320E030E00C
:1045D00040EC5FE3C701B6010E945EB96B017C014C
:1045E000288D622F772767FD7095872F972F0E9460
:1045F00027B89B01AC01C701B6010E945EB96D836B
:104600007E838F839887AE01475F5F4FBE016F5FE8
:104610007F4FCE0105960E94A71C0E94BC5D1092A0
:104620001605109217051092180510921905109290
:104630001205109213051092140510921505111110
:104640001BCF211019CF332029F081E00E94901850
:10465000111102C0002319F082E00E9490180E94FC
:10466000E1170E94B75D0E94E81C83E0809345013A
:104670000E9420218091F704882329F082E00E9483
:1046800090181092F7041092F60468960FB6F894FA
:10469000DEBF0FBECDBFDF91CF911F910F91FF9075
:1046A000EF90DF90CF90BF90AF909F908F907F90D2
:1046B0006F905F904F903F902F9008955F926F9210
:1046C0007F928F929F92AF92BF92CF92DF92EF92A2
:1046D000FF920F931F93CF93DF9306EE11E0C2E199
:1046E000D5E0712C512C612CF80181918F010E9431
:1046F0005B17882351F10E9468176B017C012881A8
:1047000039814A815B810E9410B74B015C012DEB1E
:1047100037E346E855EB0E942AB987FD0AC02DEB26
:1047200037E346E855E3C501B4010E9488B718167F
:1047300064F4F3E07F1203C06624639402C055243E
:104740005394C882D982EA82FB827394249684E0CF
:104750007812CACF552019F00E94E11703C06110EA
:104760000E947519DF91CF911F910F91FF90EF90EB
:10477000DF90CF90BF90AF909F908F907F906F9081
:104780005F900C942021CF93DF93E3E0F4E08491D9
:10479000EF012196882321F00E948C14FE01F7CFAF
:1047A00060E083EF93E00E94C51561E08CEE93E03A
:1047B0000E94C51561E081EE93E00E94C51561E09D
:1047C00081ED93E00E94C51560E088EC93E00E94C3
:1047D000C51561E08EEB93E00E94C51560E084EBA7
:1047E00093E00E94C51560E08CEA93E00E94C51535
:1047F00060E08EE993E00E94C51560E080E993E0F7
:104800000E94C51560E081E893E00E94C51560E054
:1048100083E793E00E94C51560E08DE593E00E9478
:10482000C51560E08CE493E00E94C51560E087E365
:1048300093E00E94C51561E084E293E0DF91CF919F
:104840000C94C515FF920F931F93CF93DF93C091E4
:10485000280AD091290A23E0F12C30E02150C1F040
:104860008881982F9B7F9134C9F799819133B1F753
:10487000813421F0853421F431E002C0FF24F39427
:10488000CE010296EC01019648814032D9F3E6CF81
:10489000332361F0EAEEFBE084918F010F5F1F4F3D
:1048A000882321F00E948C14F801F6CFFF2061F0DC
:1048B000E9E1F3E084918F010F5F1F4F882321F01E
:1048C0000E948C14F801F6CF8991882319F00E9478
:1048D0008C14FACF8AE0DF91CF911F910F91FF9056
:1048E0000C948C14CF9388EC90E00E94281B8111CB
:1048F00040C084E40E9412178823C1F10E94681707
:10490000C1E020E030E0A9010E9488B7811101C018
:10491000C0E0C0932C0ACC2349F10E946817E091B3
:104920002B0324E0E29FF0011124EA59F54F608344
:1049300071838283938320E030E0A9016091660A4D
:104940007091670A8091680A9091690A0E9488B7FD
:1049500081110CC080E090E0A0EEBFE38093660A76
:104960009093670AA093680AB093690ACF910C9458
:10497000A766CF910895CF9383E50E945B178823A4
:10498000A1F00E9468176093860A7093870A80934B
:10499000880A9093890A60937E0A70937F0A8093B5
:1049A000800A9093810AC0E001C0C1E080E50E94C6
:1049B0005B17882359F00E9468176093860A7093EA
:1049C000870A8093880A9093890AC0E082E50E9452
:1049D0005B17882359F00E9468176093820A7093CE
:1049E000830A8093840A9093850AC0E084E50E943C
:1049F0005B17882359F00E94681760937E0A7093B2
:104A00007F0A8093800A9093810A2AC0CC2341F1C7
:104A10004091860A5091870A6091880A7091890AAC
:104A200087EE92E00E947E764091820A5091830A3E
:104A30006091840A7091850A84EE92E00E947E76ED
:104A400040917E0A50917F0A6091800A7091810A9C
:104A500081EE92E00E947E768AE0CF910C948C14D5
:104A6000CF91089582E40E941217882351F00E948A
:104A7000AD176093BE0A7093BF0A8093C00A9093EB
:104A8000C10A83E50E941217882351F00E9468171B
:104A900060938A0A70938B0A80938C0A90938D0A94
:104AA00084E50E941217882351F00E9468176093D2
:104AB0007A0A70937B0A80937C0A90937D0A88E53A
:104AC0000E941217882351F00E94681760936A0AA7
:104AD00070936B0A80936C0A90936D0A89E50E942B
:104AE0001217882351F00E94681760936E0A709322
:104AF0006F0A8093700A9093710A8AE50E941217D8
:104B0000882351F00E9468176093720A7093730AA9
:104B10008093740A9093750A85E40E941217882383
:104B200051F00E9468176093760A7093770A809319
:104B3000780A9093790A0895CF93DF93EAEEFBE029
:104B40008491EF012196882321F00E948C14FE01AC
:104B5000F7CF83E50E941217882321F00E94D11716
:104B600080930C01E1EDF2E08491EF01219688231E
:104B700021F00E948C14FE01F7CF80910C01882354
:104B800019F0EDECF2E002C0E9ECF2E08491EF0103
:104B90002196882321F00E948C14FE01F7CFE1ECCE
:104BA000F2E08491EF012196882321F00E948C1479
:104BB000FE01F7CF40915A0350915B0360915C0373
:104BC00070915D038FEB92E00E947E7640915E03D0
:104BD00050915F0360916003709161038CEB92E0F0
:104BE0000E947E764091620350916303609164035A
:104BF0007091650389EB92E00E947E76E1EBF2E032
:104C00008491EF012196882321F00E948C14FE01EB
:104C1000F7CF40910D0150910E0160910F017091FD
:104C200010018FEA92E00E947E764091110150912E
:104C3000120160911301709114018CEA92E00E94BC
:104C40007E76409115015091160160911701709187
:104C5000180189EA92E00E947E768AE0DF91CF9186
:104C60000C948C140F931F93CF93DF938DED90E0F2
:104C70000E94281B811166C083E50E945B17882370
:104C8000B9F1C0912B03D0E00E949D17FE01EE0FF9
:104C9000FF1FEC5CFE4F71836083E0912B03F0E01B
:104CA000EF01CC0FDD1FCC0FDD1F8E01005D1E4F0D
:104CB000EE0FFF1FEC5CFE4F60817181882777FD4E
:104CC0008095982F0E9427B82AE037ED43E25CE3F5
:104CD0000E945EB9CE59D54F288139814A815B81C6
:104CE0000E945EB9F80160837183828393832AC036
:104CF000EAEEFBE08491EF012196882321F00E94E7
:104D00008C14FE01F7CF85E40E948C1480912B0354
:104D1000805D0E948C14E0912B03F0E0EE0FFF1FEA
:104D2000EC5CFE4F6081718181EA92E00E944776DF
:104D300085E20E948C148AE0DF91CF911F910F9140
:104D40000C948C14DF91CF911F910F910895CF9304
:104D5000DF938AE50E945B17811105C083E50E94FD
:104D60005B178823D1F10E94681720E030E040E013
:104D700050EC0E9488B787FD12C00E94681720E09F
:104D800030E040E050E40E942AB918161CF00E945E
:104D9000681709C060E070E080E090E404C060E063
:104DA00070E080E090EC2091A60A3091A70A409133
:104DB000A80A5091A90AE0910005E2FF0EC0C09137
:104DC000D916D091DA160E945EB90E94F4B76C0F22
:104DD0007D1F7093DA166093D916DF91CF910895F5
:104DE0000F931F93CF93DF9383E50E945B17882374
:104DF00021F00E949D178B0102C004E011E080E5C4
:104E00000E945B17882329F00E949D17262F872F69
:104E100002C028EE83E0C22FD82FC93833E1D30770
:104E200010F0C8E8D3E12091380390913903291399
:104E300007C08CE293E00E9409160E949785F3CF89
:104E40008091370334E0839FF0011124E05DFC4F33
:104E5000D387C287158704872F5F209338038F5F1E
:104E6000891719F08093370302C010923703DF913E
:104E7000CF911F910F910895CF93DF9385E40E9406
:104E80005B17811110C080E50E941217882391F0F2
:104E90000E9468176093E3167093E4168093E516FA
:104EA0009093E61607C00E94BD17882361F3E0EFD8
:104EB000FBE06EC089E40E941217882381F00E94F3
:104EC00068172CEA35EC47E25EE30E945EB9609316
:104ED000DF167093E0168093E1169093E21684E457
:104EE0000E941217882381F00E9468172CEA35EC83
:104EF00047E25EE30E948CB76093DB167093DC168A
:104F00008093DD169093DE16EAEEFBE08491EF01CC
:104F10002196882321F00E948C14FE01F7CF409146
:104F2000E3165091E4166091E5167091E6168DE94E
:104F300092E00E947E762CEA35EC47E25EE36091D7
:104F4000DF167091E0168091E1169091E2160E94B2
:104F50008CB7AB01BC0189E992E00E947E762CEA15
:104F600035EC47E25EE36091DB167091DC168091D0
:104F7000DD169091DE160E945EB9AB01BC0185E999
:104F800092E00E947E768AE0DF91CF910C948C149F
:104F90008491EF012196882321F00E948C14FE0158
:104FA000F7CFE3E8F2E08491EF012196882321F026
:104FB0000E948C14FE01F7CFDF91CF910895CF921C
:104FC000DF92EF92FF920F931F93CF93DF9300D066
:104FD00000D000D0CDB7DEB785E40E945B178823F0
:104FE00021F00E949D178B0102C000E010E083E4D5
:104FF0000E945B17882321F00E949D17F62E02C0A5
:1050000065E0F62E85E50E945B17882321F00E945B
:10501000D117E82E04C085E50E941217E82EC12C96
:10502000D12C17FF03C02CE892E402C026E193E4E0
:1050300083E52D839E830E945B172D819E818823AB
:1050400029F00E9468176B019C0101C0392FB6013D
:10505000C9010E94F4B70115110511F410922B0338
:10506000882777FD8095982F0E9427B869837A83D7
:105070008B839C832E2D4F2D602FCE0101960E9495
:10508000088826960FB6F894DEBF0FBECDBFDF911D
:10509000CF911F910F91FF90EF90DF90CF900895E7
:1050A0001F93CF93DF93182F0E948A67112309F172
:1050B000EAEEFBE08491EF012196882321F00E9423
:1050C0008C14FE01F7CF84E50E948C146AE070E036
:1050D000812F0E940F1580E20E948C14EDE1F6E012
:1050E0008491EF0121968823F1F00E948C14FE0137
:1050F000F7CF10925703EAEEFBE08491EF0121967F
:10510000882321F00E948C14FE01F7CF6091570391
:1051100070E08FE296E00E9447768AE0DF91CF91BF
:105120001F910C948C14DF91CF911F910895CF9310
:10513000DF93E091F304F0E0E55EFC4F808188238B
:1051400081F0EDE5F2E08491EF012196882321F0D2
:105150000E948C14FE01F7CF8AE0DF91CF910C946E
:105160008C14DF91CF910895CF93DF930E94871421
:10517000E0E6F2E08491EF012196882321F00E947D
:105180008C14FE01F7CF6091F8047091F9048091BE
:10519000FA049091FB046F5F7F4F8F4F9F4F4AE05F
:1051A00050E00E9438158AE00E948C14DF91CF9164
:1051B0000C949728EF92FF920F931F93CF93DF9356
:1051C0001F92CDB7DEB7082F162FE0EFFBE08491DA
:1051D0007F012FEFE21AF20A882331F099830E94AF
:1051E0008C14F7019981F3CFE02FF92F84917F017F
:1051F0009FEFE91AF90A882321F00E948C14F70125
:10520000F5CF6091F8047091F9048091FA049091BF
:10521000FB044AE050E00E9438158AE00E948C149A
:1052200011110E94B42810925303109252030F9050
:10523000DF91CF911F910F91FF90EF900895CF9242
:10524000DF92EF92FF92CF93DF93EC0180910C01FC
:10525000882309F484C0C0905A03D0905B03E09087
:105260005C03F0905D03A7019601688179818A81D2
:105270009B810E9488B787FF04C0C882D982EA82D6
:10528000FB82C0905E03D0905F03E0906003F090DB
:105290006103A70196016C817D818E819F810E94AF
:1052A00088B787FF04C0CC82DD82EE82FF82C09087
:1052B0000D01D0900E01E0900F01F0901001A701B8
:1052C0009601688179818A819B810E942AB918168A
:1052D00024F4C882D982EA82FB82C0901101D09066
:1052E0001201E0901301F0901401A70196016C8166
:1052F0007D818E819F810E942AB9181624F4CC8268
:10530000DD82EE82FF82C0906203D0906303E09062
:105310006403F0906503A7019601688579858A8505
:105320009B850E9488B787FF04C0C886D986EA8615
:10533000FB86C0901501D0901601E0901701F09007
:105340001801A7019601688579858A859B850E9449
:105350002AB9181624F4C886D986EA86FB86DF9116
:10536000CF91FF90EF90DF90CF90089580E00E9462
:10537000766760931F0370932003809321039093BB
:10538000220381E00E9476676093230370932403D5
:10539000809325039093260382E00E9476676093B2
:1053A0002703709328038093290390932A03089579
:1053B000CF93DF931F92CDB7DEB789830E94B629C2
:1053C00089818E3F51F48CE0EFE1F3E0A2E1B5E09A
:1053D00001900D928A95E1F713C024E0829FC001ED
:1053E0001124FC01EE5EFA4FDC01A15EBC4F8D91F1
:1053F0009D910D90BC91A02D80839183A283B38356
:105400000F90DF91CF9108950E940C670E948A67E8
:105410008EEF0E94D8290C94E1178F929F92AF9241
:10542000BF92CF92DF92EF92FF920F931F93CF9391
:10543000DF93CDB7DEB728970FB6F894DEBF0FBE67
:10544000CDBF82E095E00E941F298091220583FD57
:1054500066C0C0900E05D0900F05E0901005F0904A
:10546000110580901E0590901F05A0902005B0901A
:105470002105A5019401C701B6010E9488B78823C0
:1054800009F44DC0A5019401C701B6010E9410B7EF
:105490004B015C0120E030E0A9010E942AB987FF9E
:1054A00004C0C501B401905802C0C501B401E09127
:1054B000570324E0E29FF0011124E05DFE4F2081BC
:1054C0003181428153810E945EB920E030E048E49E
:1054D00053E40E942AB9181614F5C0921E05D09202
:1054E0001F05E0922005F0922105EAEEFBE0849191
:1054F0007F019FEFE91AF90A882321F00E948C149A
:10550000F701F5CFEEE3F2E084917F012FEFE21A8D
:10551000F20A882321F00E948C14F701F5CF6091E4
:10552000190170911A01882777FD8095982F0E94A4
:1055300027B820911B0130911C0140911D01509111
:105540001E010E945EB92AE037ED43E25CE30E944F
:105550005EB96D837E838F839887E09057031982AD
:105560001A821B821C82CE0101966C018E010B5F98
:105570001F4F2EE035E04AE055E066E075E082E03E
:1055800095E00E94B77180E1E2E0F5E0A2E1B5E0CC
:1055900001900D928A95E1F728960FB6F894DEBF38
:1055A0000FBECDBFDF91CF911F910F91FF90EF9074
:1055B000DF90CF90BF90AF909F908F9008955E98AE
:1055C0005E9815985E9808955E9A08955E9A809107
:1055D00000058E7F809300055E9A809100058D7F87
:1055E00080930005159A809100058B7F80930005BC
:1055F0000C94E42AEC01E0EFFBE084918F010F5F53
:105600001F4F882321F00E948C14F801F6CFEBED98
:10561000F1E084918F010F5F1F4F882321F00E94DA
:105620008C14F801F6CF0E94F5830E94E62ACE0181
:105630000E9402A92FEF8BE49DE121508040904011
:10564000E1F700C00000F8942FEF84E39CE02150C4
:1056500080409040E1F700C000000E94F583A895CB
:10566000FECFFF920F931F93CF93DF938091F404AB
:10567000843008F02DC10E94731497FD29C1482F72
:1056800020915203309153038A3019F04D3009F0C4
:10569000F7C0109215032115310519F40E94978562
:1056A000E5CFF901EB54FD4F108210925303109295
:1056B000520385EB92E08C01FC012081019620329F
:1056C000D1F3E8012E3409F082C00115110509F467
:1056D0007EC06CE178E0C8010E94D0BEFF24F39444
:1056E000892B11F4F12C09C06EE470E0C801049616
:1056F0000E941EBF009709F08C014AE050E060E074
:1057000070E0C80101960E9441BC6093FC04709354
:10571000FD048093FE049093FF040091F80410911F
:10572000F9042091FA043091FB040F5F1F4F2F4FB3
:105730003F4F601771078207930731F0F11004C0E3
:1057400061E089EE97E04AC06AE270E0CE010E9413
:1057500056BF009739F1482F4C1B20E030E0F12C68
:105760005FEF540F421751F0652F621BFE01E60FE9
:10577000F11D6081F6262F5F3F4FF4CF4AE050E0E5
:1057800060E070E001960E9441BC0F2D10E020E027
:1057900030E0601771078207930741F061E08AECFF
:1057A00097E01CC061E080EA97E018C04091FC04DB
:1057B0005091FD046091FE047091FF044093F80441
:1057C0005093F9046093FA047093FB040EC0809127
:1057D0002305882351F061E086E797E0DF91CF91C0
:1057E0001F910F91FF900C94DA2880911F01811175
:1057F00022C067E470E0CE010E941EBF0097D9F07E
:105800004AE050E060E070E001960E9441BC6430E4
:10581000710588F4EFEFF6E084918F010F5F1F4F61
:10582000882321F00E948C14F801F6CF60E085EF08
:1058300096E00E9487A561ED71E0CE010E9429BF2C
:10584000892B21F410920B011092550366ED71E043
:10585000CE010E9429BF892B21F48CEE96E00E9494
:10586000FA2A6BED71E0CE010E9429BF892B11F459
:105870000E94042A61E085EB92E00E949619F6CE20
:105880002F3531050CF0F2CE4C3569F40E947314BB
:1058900097FDECCE209115032111E8CE2091520303
:1058A0003091530309C04B3319F441E04093150381
:1058B000409115034111DACEA9014F5F5F4F50931C
:1058C000530340935203F901EB54FD4F8083CECE36
:1058D000DF91CF911F910F91FF9008950E94DC19E5
:1058E000811129C00E94312B8091DF13823009F58C
:1058F0008091DE138823E9F08091B40220E6829F34
:10590000C001112460E08254904F0E9496198823B0
:1059100091F08091B4028F5F8093B4028091DE1386
:1059200081508093DE13811106C083E08093DF13E2
:1059300008950C943D1A0895CF92DF92EF92FF9252
:105940000F931F93CF93C82F8091F404843010F4E9
:105950000E946E2C0E94CFB4C0904A03D0904B039B
:10596000E0904C03F0904D03C114D104E104F10424
:1059700079F100914E0310914F0320915003309123
:1059800051030C0D1D1D2E1D3F1D6B017C01C01A06
:10599000D10AE20AF30AF7FC1BC0E0EFFBE08491B6
:1059A0008F010F5F1F4F882321F00E948C14F80194
:1059B000F6CF60912A0A70912B0A84E092E00E944F
:1059C00020768AE00E948C148BEF91E00E94FA2AE4
:1059D00000910701109108012091090130910A01FD
:1059E0000115110521053105C9F15091E80A4091D1
:1059F000E50A541749F060934E0370934F03809368
:105A00005003909351032AC0C11128C0C0904E0387
:105A1000D0904F03E0905003F0905103C00ED11E80
:105A2000E21EF31EAB01BC014C195D096E097F0932
:105A300077FD14C05E9A809100058E7F80930005EB
:105A40005E9A809100058D7F80930005159A809164
:105A500000058B7F809300050E94E42ACF911F915F
:105A60000F91FF90EF90DF90CF900C9487660E948B
:105A700015A90E947E1D80E00E949C2C0E949785A3
:105A80008CE293E00E94091680915403811102C0B8
:105A90000C94528C0895CF93DF93EC01CE010E94B9
:105AA000B319811103C00E94372DF8CFDF91CF9138
:105AB00008958F929F92AF92BF92CF92DF92EF9212
:105AC000FF924B015C010E94CFB46B017C01C80CBA
:105AD000D91CEA1CFB1C0E94CFB46C197D098E09ED
